:10000000008000205D430000F942000045430000ED
:1000100000000000000000000000000000000000E0
:100020000000000000000000000000004543000048
:10003000000000000000000045430000B143000044
:100040004543000045430000454300004543000090
:10005000BD420000454300004D0B00004943000035
:1000600045430000ED2400004543000045430000E7
:10007000C506000045430000FD2400004543000084
:1000800045430000454300002116000045430000A1
:1000900000000000454300004543000045430000C8
:1000A0004543000045430000454300004543000030
:1000B0000000000010B5064C2378002B07D1054B3B
:1000C000002B02D0044800E000BF0123237010BDC4
:1000D0008002002000000000F4A90000044B10B5CD
:1000E000002B03D00349044800E000BF10BDC04608
:1000F0000000000084020020F4A900007047000006
:10010000F7B50121052004F063FB0021052004F070
:100110008FFB5C4C01222000142100F05FF92000CD
:10012000594900F077F9594D22006721280001F064
:10013000DAFD2800002101F070FE2800032101F003
:1001400083FE2800022101F05BFE0021280001F05F
:1001500092FE4F4800F04CFC0121042004F038FBD3
:100160000121042004F064FB0A2004F065F9002159
:10017000042004F05DFB0A2004F05EF90121042054
:1001800004F056FB0A2004F057F9424C01AF20005E
:1001900001F058FD4049200001F06CFB00220A21CB
:1001A000200001F0E1FC0021200001F029FD2000E9
:1001B00001F078FA0121280001F085FD280001F006
:1001C000DFFD280001F0FCFD5A2004F035F928007D
:1001D00001F0D6FD01233B7006F04CFF00222F4BAF
:1001E00006F0A0F804F0A4FC06F0B8FE6B465A1D19
:1001F00083B21B0A107020005370C82601F03AFC2D
:10020000022004F019F9142576421B21200001F088
:1002100045F89D38031C00B2B04200DA331C1EB210
:10022000FA231B01013BFDD1013DEDB2002DECD1C4
:10023000200001F053FB593605DB200001F032FAB3
:10024000642004F0F9F8200001F048FB0322390093
:10025000200001F04BFC200000F09CFE200001F08B
:1002600021FA052502240121280004F0E1FA2000EA
:1002700004F0E2F82800002104F0DAFA200004F08B
:10028000DBF8F0E7D8030020A08601009C020020E4
:100290000C060020A8020020000059440000244061
:1002A000704710B5040004F011F9200010BD0000E3
:1002B00010B5084C084B03220821200001F006FA73
:1002C000064A0749200004F02BFC064801F0F8FC20
:1002D00010BDC046A80200204C08002000000020ED
:1002E000FD0000009C02002000207047F8B50500CA
:1002F0000E0017000024BC4208D02B682800315D96
:100300001B689847002801D00134F4E72000F8BDAD
:1003100070470300FC33196ADA69914203D01B6A03
:10032000C018007E704701204042FBE70300FC3309
:10033000D8691B6AC01A01D50130FF307047000030
:10034000F7B50193FA238027002504009B00836002
:10035000114B7F0008330E004560290000920360B6
:100360003A00183006F073FF23002000FC332130E0
:10037000DD613A001D622900FF3006F068FF872327
:100380009B00E3185D609D60009B20002375019B2E
:100390002661A5756375FEBDB49D000070B50400AF
:1003A00018260C49006902F0DFFB206902F0F0F921
:1003B00033000821207D084D4343EB18595604F0C3
:1003C0007BFA0821607D4643AD19695604F074FA42
:1003D00070BDC046A086010008A1000070B50400F1
:1003E0001826006902F09BFB206902F0D1F9330066
:1003F0000821207D064D4343EB18595604F05CFA62
:100400000821607D4643AD19695604F055FA70BD68
:1004100008A1000070B504000D00006902F0CDF9DC
:100420002900206902F0A0FB206902F0B1F970BD3B
:100430008A2300229B00C1540C3BC3185A609A6067
:100440000123837570470200FC32536810B50133F5
:100450009468DBB29C4202D054680155536010BDD1
:10046000F7B5019300230400150018009A422FD01D
:100470002200FC32D36120691362012202F0D0F91C
:10048000002826D02700206902F055FA183701000D
:100490003800FFF7D8FF01262069B5420ED002F0E0
:1004A0009FF90221206902F0A5F9206902F043FAC0
:1004B00001003800FFF7C7FF0136EDE702F087F9CA
:1004C000019B002B03D00321206902F093F9E8B2CD
:1004D000FEBD0500FBE710B50300827D00208242CF
:1004E0000ED0872292009C186268A4680132D2B2B2
:1004F000A24205D02133FF331800FFF7A4FF0120EB
:1005000010BD0300FC3399685A68914206D09A687E
:10051000805C9A680132D2B29A60704701204042F2
:10052000FBE700228A2370B59B00827505000E0050
:10053000C15C006902F074F9002806D10321286922
:1005400002F058F90224200070BD872328009B0088
:10055000EA18536894682130FF301C1B01D5013420
:10056000FF34002C0ED02C69FFF7CBFFC1B2200066
:1005700002F09DF90028E8D10321286902F03AF938
:100580000324E0E7002EDED00321286902F032F9CF
:10059000D9E710B50121FFF7C4FF10BD10B5183021
:1005A000FFF7AFFF10BD70B50400006902F0A1F9BC
:1005B000002814D0206902F0AAF9002810D0206980
:1005C00002F00EF90321206902F014F98C239B003C
:1005D000E558002D39D10023FC34E361236270BD5E
:1005E000206902F09EF9002809D0206902F094F9F0
:1005F000002804D0206902F099F90028DFD0206992
:1006000002F08FF9002826D1206902F07BF900283A
:10061000E5D0206902F08AF9002837D087239B00B3
:10062000E218536892689B1A01D50133FF33FF210A
:10063000002B05D020002130FF30FFF762FFC1B250
:10064000206902F047F9A075C9E7236820001B69FB
:100650009847A847BFE7206902F0C2F82069032144
:1006600002F0C8F8206902F061F90028B7D08723AA
:1006700000229B00E3185A609A600123A3758B2324
:100680009B00E3589342AAD09847A8E72200FC3287
:10069000D369126A0133DBB22069934206D102F0BA
:1006A00096F80321206902F0A5F898E702F043F9D3
:1006B000010020001830FFF7C6FE206902F090F814
:1006C000EFE7000010B50248FFF76DFF10BDC04610
:1006D000D803002010B51523142202490248FFF761
:1006E0002FFE10BD800E0020D803002010B500F0B2
:1006F00079FB0022024B8000C35849331A7010BDA9
:1007000060060020F0B5040085B01E000AAB1B781F
:10071000103001930BAB1B78170002930CAB1B78C6
:100720000D00039300F0E0F92000243000F0DCF924
:10073000220000234832A363E363236463641370DD
:10074000537063729D4205D12721084B084A09481E
:1007500006F0F6FC2000019B25606371029B277167
:10076000E371039BA671237205B0F0BDD89D000014
:10077000E99D00003D9E000030B5040085B002AD4B
:1007800000680291039201F0C1FF6B79227AE1794E
:1007900020680093002302F099F92979029A2068D1
:1007A00001F0D6FF206801F0A7FF05B030BD10B5FD
:1007B0000400006801F093FF0023637210BD000085
:1007C00010B54B1C0BD0102909D0EFF3108472B672
:1007D000102905DD02238372002C00D162B610BD02
:1007E0000123827A1A43827218224A4304498918E3
:1007F00016228A569340C2681343C360ECE7C04692
:1008000008A1000007B5837A00910192002B07D060
:100810009A070AD5EFF310835A425341C37272B656
:100820000099019AFFF7A8FF07BDDB07F8D5C36859
:10083000014A9BB29360F3E700180040837A002BD3
:1008400005D09A0704D5C37A002B00D062B6704752
:10085000DB07FCD5C368024A9BB2D360F7E7C0460A
:100860000018004010B5006801F059FF10BD70B5C8
:1008700005000C008E18B44206D021782800FFF73E
:10088000F1FF20700134F6E770BD000010B500687C
:1008900002F06CF803000020834203DB0C3043437A
:1008A000014A985810BDC046949E000010B50068DB
:1008B00002F05CF8002805DB0C2343430348C01812
:1008C000406810BD01204042FBE7C046949E0000F6
:1008D00010B5006802F04AF8002805DB0C234343FA
:1008E0000348C018806810BD01204042FBE7C046A5
:1008F000949E0000F0B506001036050089B0300067
:1009000000F048F900286CD12F002437380000F09F
:1009100041F9041E62D12800FFF7DAFFC1B23000AE
:1009200000F018FA0221300000F038FA01222E49B6
:10093000300000F00BFA300000F054FA2B4B80002E
:10094000C5502800FFF7B2FFC1B2380000F002FA2C
:100950000221380000F022FA380000F043FA234B5D
:100960008000C5502800FFF791FF012301002200FD
:10097000029330002300049403940194009400F047
:1009800033FAA8632800FFF781FF0123020021004A
:10099000019338002300049403940294009400F01F
:1009A00023FAE863402006F035FC2A004832286428
:1009B000079200280BD00123137068646B6C10221F
:1009C0001819E96B103406F039FC402CF6D1079B5E
:1009D0001B78002B05D1380000F076F9300000F0CC
:1009E00073F909B0F0BDC046ED06000060060020B6
:1009F00070B5437A0400002B03D101224381427277
:100A0000C360230048331B78002B02D12000FFF77E
:100A100071FF18263300082120790D4D4343EB1850
:100A2000595603F049FF33000821A0794343EB18DE
:100A3000595603F041FF082160794643AD196956C4
:100A400003F03AFF034B200006CBFFF795FE70BD85
:100A500008A10000580600201FB5094A094B0A49A1
:100A600013600023938002930133019316330093A4
:100A7000162201330548FFF745FE05B000BDC0460C
:100A80005806002000093D00880E00200C060020BA
:100A9000084B1968002909D1EFF31080064A002895
:100AA00003D172B6BFF35F8F013111701A68013242
:100AB0001A6070471808002014080020084B1A68B4
:100AC000002A0CD01A68013A1A601B68002B06D164
:100AD000044B1B78002B02D0BFF35F8F62B67047C8
:100AE0001808002014080020FF2310B50370C0234D
:100AF000002104009B004170418083800C2208305B
:100B000006F0A5FB200010BD01230A0010B51A4015
:100B1000194208D00C4A1370033343708368002BCA
:100B200000D0984710BD0223194204D006490B702B
:100B3000C3684270F3E704231942F3D0024A1370EA
:100B4000033343700369EAE74E48004110B5FFF7ED
:100B50009FFF0C4B1B8C1B071B0F0B2B0FD80A4A3C
:100B60009900885800280AD00F2408490A78A2431F
:100B700013430B70064B1978C9B2FFF7C5FFFFF797
:100B80009DFF10BD004800411C0800203F48004167
:100B90004E480041F8B500230278050018000B2AE2
:100BA00077D93C4E2B702B780B2B07D801229A401B
:100BB0003168114204D001332B70F4E7012068E062
:100BC000FFF766FF3768344C002F2BD12022334BC0
:100BD000334859690A435A611022D9690A43DA61D4
:100BE000022223883900934323802388013A134348
:100BF00023802C4B6063BF32A36306F028FBC02226
:100C00003900284806F023FB4022C120264B8000F3
:100C10002380264B26491A601A581140C02212041C
:100C20000A431A5001231A00297830688A40024387
:100C300032600F261F4A880085501F4831400278D5
:100C4000B2430A43027002201C4A1178814311709A
:100C5000117819431170297822698B409A432261D7
:100C600060223F21636C934363642A79636C0A407A
:100C7000134912020B400321134363646A79636CC6
:100C80000A40104992050B4013436364FFF716FFB7
:100C90000020F8BD1008002000480041000400407A
:100CA0005007002090060020020F000000E100E045
:100CB000FFFF00FF1C0800203F4800414048004162
:100CC000FFC0FFFFFFFF3FFF70B50500FFF7E0FE2D
:100CD0006B785CB2062B2BD02B7802240B2B27D8F9
:100CE00001229A40144B1968114221D0196891438E
:100CF00019601B68002B14D14022104BDA67BFF338
:100D00004F8FBFF36F8F21000D4A0E311388A3431D
:100D100013800C4BDA698A43DA615A6910318A43CD
:100D20005A6100242B78084A9B009C50FF232B70AB
:100D3000FFF7C4FE200070BD1008002004E100E0B1
:100D400000480041000400401C08002002329200CC
:100D500011507047037870B505000C0001710B2B22
:100D600014D8FFF795FE29780F2509482940037804
:100D7000084AAB430B4303703F23516C1C40064BA6
:100D8000240219400C435464FFF798FE70BDC0461E
:100D90003F48004100480041FFC0FFFF037870B5A5
:100DA00005000C0041710B2B14D8FFF771FE297858
:100DB0000F25094829400378084AAB430B430370C9
:100DC0000323516C1C40064BA40519400C4354648A
:100DD000FFF774FE70BDC0463F4800410048004127
:100DE000FFFF3FFF00787047F0B587B001930CAB71
:100DF0001E780DAB1B78050002930EAB1B780078B4
:100E0000039310AB1F78049105920B2802D90020A0
:100E100007B0F0BD6B78062BF9D0AB78002B00D172
:100E200079E01021080006F0EBF90028EFD02B78CC
:100E30003B4A1B019B181A00D168002904D0D168D5
:100E40008B4201D0D268F7E7D06001220223AA705A
:100E5000964203D0DB18022E00D01300062401882E
:100E6000114301800188A143018001881234A1430C
:100E70000180153C018826402A4C360221400E4351
:100E80000680029E0188284C16402140B6020E437F
:100E90000680039E0188254C16402140F6020E4331
:100EA00006800188224E3A40314012030A4307214E
:100EB00002800F9A114002884903D204D20C0A43DF
:100EC00002806A4692884280049A4260029A002A0E
:100ED00008D0019A41685A43002F01D00F9CA240CC
:100EE0008A184260059A8260039A002A09D0019A02
:100EF00084685A431300002F01D10F9A9340E318DE
:100F000083600023EA789A4203D02B78044A1B01BD
:100F10009B18C3607CE7024B0001C01895E7C046F0
:100F200050070020FFFCFFFFFFFBFFFFFFF7FFFF65
:100F3000FFEFFFFF0120704700207047817170476D
:100F400041717047C17270470173704741737047B8
:100F5000837B9343194381737047C079C0B2704754
:100F6000007AC0B27047407AC0B27047807AC0B28F
:100F70007047008A00B270470079C0B270470171B3
:100F80007047408A80B27047808A80B27047C08ABA
:100F900080B2704710B504002379032B02D103F00F
:100FA0006BFAF9E7012010BD70B505000C002B6845
:100FB0002800DB689847002807D103F05DFA002C71
:100FC000F5D0200003F038FAF1E770BDF8B5050060
:100FD0000F00140003F0FAF9060003F0F7F9801B84
:100FE000B8420DD22B682800DB689847002808D14A
:100FF00003F042FA002CF0D0200003F01DFAECE7D9
:101000000020F8BD70B505000E0003F0DFF9040004
:1010100003F0DCF9001BB04205D22B79032B04D17D
:1010200003F02AFAF4E7002070BD0120FCE7C36951
:1010300070B50400002B17D003F0C8F96426050032
:10104000236820001B6B984700280DD003F0BEF9E1
:10105000E369401B984209D80A21012003F067F98F
:10106000704303F0E9F9EBE7012070BD0020FCE7D5
:10107000064BFF2203600023037142714382C27258
:10108000838282818373C382C3617047E49E0000C0
:101090007047704770477047704741717047817162
:1010A000704701717047000010B5034C08340460AC
:1010B00001714271837110BD5C9F00007047000098
:1010C00010B50248FFF7CEFB10BDC0460C0600204D
:1010D00010B50279042A26D0032A26D0022A26D067
:1010E000013A53425A41154B52421A40D2184379A1
:1010F0008179013B00291CD001291AD0022918D07E
:10110000032916D059424B410021DBB2140A027266
:101110004472140C120E8472C27201734373084835
:10112000FFF766FC10BD074AE1E7074ADFE7074A19
:10113000DDE75C426341DBB2E8E7C04640420F00B6
:101140000C0600200024F40000127A0000093D0083
:1011500010B50248FFF72BFB10BDC0460C0600205F
:1011600010B58168C2680248FFF74CFB10BDC0464D
:101170000C06002010B50248FFF760FB10BDC0460A
:101180000C06002010B50248FFF71AFB10BDC04640
:101190000C06002010B50400FFF786FF044B20006A
:1011A00008332360034BA3600023A38110BDC04616
:1011B000909F000000093D00002310B51A0019009F
:1011C0000148FFF7E7FF10BD4C08002072B6BFF3DF
:1011D0005F8FBFF34F8FBFF36F8F0120704710B544
:1011E0000400006A03681B6A9847236820000433E0
:1011F000DB6F984710BD10B5040003680833DB6F40
:101200009847206A03685B6A984710BD10B50400D0
:10121000006A0368DB689847631DD87FFF2802D007
:10122000012103F0D5FA236820000833DB6F9847CB
:10123000642003F001F9012010BD10B50530C07F16
:10124000FF2802D0002103F0F3FA10BD10B50530DD
:10125000C07FFF2802D0012103F0EAFA10BD80F31D
:101260001088BFF35F8FBFF34F8FBFF36F8FBFF354
:101270005F8FBFF34F8FBFF36F8F704770B5040060
:101280000D001600FFF7F4FE034B26622360631D7A
:101290002000DD7770BDC046CC9F0000F8B504008B
:1012A0000E00EFF31087FFF791FF0025A84213D03F
:1012B000236820009B6F98477F21206A3140036894
:1012C0001B689847206A290003681B6898472368B1
:1012D0000500DB6F200098473800FFF7C0FF2800AB
:1012E000F8BDF7B5040016000191EFF31087FFF782
:1012F0006DFF0025A84218D0236820009B6F9847F7
:101300008021019B206A0B43190003681B689847E2
:101310000500206A310003681B6898471023013BD1
:10132000FDD123682000DB6F98473800FFF797FF57
:101330002800FEBDF7B50400150000910193EFF3FE
:101340001087FFF743FF0026B0421ED0236820001D
:101350009B6F98477F21009B206A0B401900036810
:101360001B6898470600019BEB180093009B9D4269
:1013700007D0206A002103681B6898472870013550
:10138000F4E723682000DB6F98473800FFF767FF1A
:101390003000FEBDF7B504000E0000920193EFF39C
:1013A0001087FFF713FF0025A8421ED023682000F6
:1013B0009B6F98478021206A4942036831431B682C
:1013C000C9B298470500009E019BF3180093009B4B
:1013D0009E4206D0206A3178036801361B68984720
:1013E000F5E723682000DB6F98473800FFF737FFE9
:1013F0002800FEBD10B5006A03689B6A984710BDBF
:1014000010B5C31C0400D87F03F03EFA431E984178
:101410000634E37F584010BD10B50430C07F03F0A0
:1014200007FA10BD10B5C31DDB7F0530C07F5940E2
:1014300003F0FEF910BD10B503790400022B08D0AB
:101440000021FFF7EFFF00212000FFF7E5FF022357
:10145000237110BD082388101840030010B5064AF8
:101460000833984205D0145C8C4203D00130C0B2DE
:10147000F7E7002010BDC04654A00000F8B50400F6
:10148000FFF7BEFF002805D022002A32137801336F
:10149000DBB213702100230029310A782B338242FA
:1014A00052D01A780B254F2A00D912351A785219C2
:1014B000D2B21A7008701A789F2A44D92100E28D9E
:1014C0002A315208E2850A78042A04D98022E08D64
:1014D00012010243E2851A7825006032D2B21A70F6
:1014E00000232C350B702A78D3B2002A48D026006E
:1014F000303633780133DBB233700B2B23D93F23E3
:10150000E18D20001940FFF7A5FFE18D0700890953
:10151000C9B22000FFF79EFF2100220075313F0174
:101520000B783843C0B27432002B12D1107013788C
:10153000062B02D91378432B0BD900232B70638A17
:1015400001339BB26382F8BD1A781432D2B21A709A
:10155000B1E70B785F1CE3183133FFB20F701870DE
:1015600009781378994208D300232B7023000122B5
:1015700008332000DA77FFF75EFF00233370E2E7DD
:10158000E18D054A9142DED101222A702200753494
:10159000303213702370D6E7380B0000F7B5050022
:1015A00078352F7804007B1C2B70002F0ED10300A0
:1015B000020076330193FF321B78127A9A420BD8DD
:1015C000FFF739FFE38A01339BB2E3822B78072BC5
:1015D00001D900232B70F7BD0600C3187736793385
:1015E000197833785A1C1941012332701940FFF7DA
:1015F00013FF3378052BE9D9019B37701B78019ACB
:1016000001331370E2E7037910B5042B02D1FFF721
:1016100035FF10BD0379032BFBD1FFF7BFFFF8E7C0
:101620001023054A10B5917B0B439373034B186845
:10163000FFF7E9FF10BDC046002C00425C08002007
:1016400001207047FB20704710B503790400052B7B
:1016500010D00368052188331B68984707220121B1
:101660002000FFF73EFE802240212000FFF739FED8
:10167000052323712379052B02D102F0FDFEF9E742
:10168000207EC0B210BD80F31088BFF35F8FBFF320
:101690004F8FBFF36F8FBFF35F8FBFF34F8FBFF3DA
:1016A0006F8F704710B503790400012B0BD00368CE
:1016B000012188331B689847002201212000FFF791
:1016C00010FE01232371012010BD000070B504003D
:1016D00015001A00FFF7D2FD0A4B94222360002365
:1016E000FF215200A3540432A354E21DD5770132E6
:1016F000D1772C22FE39FF32A154A21D2000D377CE
:1017000070BDC0467CA0000070B5C41DE57F06001A
:10171000FF2D15D02900FFF76DFEE07F0124FF2883
:101720000CD0002103F054F833000833DA7FFF2A8D
:101730000CD115490A78032A05D90024200070BD70
:1017400001256D42E9E7501C0870DA77DC7F0F4B0A
:10175000A200D650002C06D1042228000C4902F029
:10176000EBFC0134EAE7012C05D1042228000949E9
:1017700002F0E2FCE2E7022CDFD104222800064955
:1017800002F0DAFC013CD9E76C0800206008002078
:10179000391A00004D1A0000611A000003002833B6
:1017A0001B78032B21D9030029331B78C371030055
:1017B0002A331B78037203002B331B784372030018
:1017C0002C331B7883728379002B06D1C37942793D
:1017D0009A4202D0C379FF2B07D1838A01220133B9
:1017E0009BB2838294235B00C254704710B5030000
:1017F000EFF3108072B6BFF35F8FBFF34F8FBFF36D
:101800006F8F9421002249005A5428331A70FFF731
:101810003AFF10BD0368F7B5DB6804000E00150041
:1018200098470190002822D0002E1DD0002D1BD0FB
:10183000EFF3108772B6BFF35F8FBFF34F8FBFF325
:101840006F8F2200283213782978033B8B4202DC09
:101850001378043B2B70210030002A782D3105F0DD
:10186000EDFC3800FFF70FFF2000FFF7BFFF0198E6
:10187000FEBD000070B50500081C0E1C05F0FAFB4B
:101880000022134B04F04EFD124B002204F044F9E9
:1018900003F09CFB0400020C06212800D2B2FFF7E3
:1018A00020FD220A28000721D2B2FFF71AFD2800E6
:1018B000E2B20821FFF715FD301C074903F07CFB5D
:1018C000431E98412A23FF33E854012070BDC046CF
:1018D00080842E4180844E4000C0424410B503797C
:1018E0000400022B0BD00368022188331B68984741
:1018F000012220001100FFF7F4FC0223237110BD28
:1019000070B512210400FFF7C9FC1C21050020005E
:10191000FFF7C4FCFF22060012212000FFF7E1FCC4
:101920002379042B09D19C331D421AD12C23FF3378
:10193000E35C002B01D0730613D52379042B01D16E
:101940006B0620D42379032B02D12B0700D56DE041
:101950002379052B0CD16B070AD50120054025768C
:1019600054E0638A200001339BB26382FFF73EFF9D
:10197000FF2212212000FFF7B4FCFF2212212000D9
:10198000FFF7AFFC70BD13212000FFF787FC10218B
:1019900005002000FFF782FC0D2102002000FFF768
:1019A000A0FC22002B00293200212000FFF7C2FCFE
:1019B000230028331D7019212000FFF76FFC03223C
:1019C000952543B2D8171040C01880106D0060559F
:1019D0001A212000FFF762FC00B220826257002A21
:1019E00018DA238A9B181BB223822A23FF33E35C75
:1019F000002B18D0238A9D3B1BB223822000FFF7C7
:101A0000CDFE94235B00E35C002BB1D02000FFF7F8
:101A100065FFADE7208A0F2100B2000103F072F9E3
:101A200000B22082E1E7238AA43BE5E7E38A0133A1
:101A30009BB2E382EAE70000034B10B51868002868
:101A400001D0FFF75DFF10BD60080020034B10B50B
:101A50005868002801D0FFF753FF10BD6008002030
:101A6000034B10B59868002801D0FFF749FF10BD5F
:101A70006008002010B503790400042B10D003681F
:101A8000042188331B689847052201212000FFF7B5
:101A900028FC002240212000FFF723FC04232371AF
:101AA00010BD10B5037904000020032B06D02000E0
:101AB000FFF7E0FF94235B00E05CC0B210BD10B5FF
:101AC00003790400032B10D00368032188331B68BB
:101AD0009847032201212000FFF703FC4022200049
:101AE0001100FFF7FEFB0323237110BDF8B50400BE
:101AF0000F001500FB2A02D900263000F8BD03684C
:101B00001B6A98472000FFF7E9FE23682000DB6A84
:101B10009847061EF0D000220D212000FFF7E1FBC0
:101B2000E27A00212000FFF7DCFB227B002120006D
:101B3000FFF7D7FB627B00212000FFF7D2FBA27BDF
:101B400000212000FFF7CDFB2B003A0000212000F0
:101B5000FFF720FC2A1D22212000D2B2FFF7C1FB93
:101B60002000FFF7ACFFC8E7831D70B505000C002F
:101B7000DA77002A15D00B1C00290DDA0023702219
:101B80001A430921D2B22800FFF7ABFB04224D21F2
:101B90002800FFF7A6FB70BD4AB20F2AEFDD0F2326
:101BA000EDE7142911DC012911DD112910DD0722CF
:101BB0004D212800FFF795FB033C64B28022023CD4
:101BC000524222430921D2B2E2E71424EFE7022471
:101BD00004224D212800FFF784FBEFE770B50D00CC
:101BE00004000A781D21FFF77CFB6A781E21200083
:101BF000FFF777FBAA7826212000FFF772FB70BD64
:101C000013B50400002005290BD803225143054BCE
:101C100001A8591805F012FB200001A9FFF7DEFF0B
:101C2000012016BD64A0000070B505000C000A0A72
:101C30002021FFF756FB28002121E2B2FFF751FBDC
:101C400070BD000070B50400FFF7E0FA002802D173
:101C50000025280070BD2000FFF756FD051EF7D0B7
:101C6000012180222000FFF73CFB0A2002F0E4FB68
:101C700001212000FFF712FB8028E9D100220E216C
:101C80002000FFF72EFB00220F212000FFF729FB89
:101C90002000FFF723FE00212000FFF7B1FF200006
:101CA0000821FFF7C1FF20000449FFF7E3FD0022F0
:101CB0000D212000FFF758FFCBE7C0460000D943B5
:101CC00040230370704713B500230C000222816883
:101CD000684600F0BFF90121002C00D000216846C1
:101CE00000F0C9F913BDF0B504008BB010200E0050
:101CF000170002F0E7FB05003A00310000F0EEF9B2
:101D000028006560002100F006FA051E03D10025B9
:101D100028000BB0F0BD0126022320226168019645
:101D2000009603A800F0BFF803A800F076F9237826
:101D3000000A9842EBD11C2002F0C4FB00230700EC
:101D40006168009306223300019600F0ACF800228F
:101D500080213800A76000F0FBF831002000FFF779
:101D6000B2FFD5E707B5002381680222684600F07C
:101D700071F9684600F072F943425841C0B20EBD95
:101D800010B58AB00400FFF7EDFF002814D001233E
:101D9000616800220193009303A8DB1800F083F828
:101DA00003A800F03AF900B203F006FBF62189051A
:101DB00003F0E8F90AB010BD0048FBE70000C07F5F
:101DC00010B58AB00400FFF7CDFF002814D001231E
:101DD00001930093DB1861681A0003A800F063F810
:101DE00003A800F01AF900B203F0E6FAF62189051B
:101DF00003F0C8F90AB010BD0048FBE70000C07F3F
:101E000013B50C00052302228168684600F022F910
:101E10002100684600F02FF913BD012310B50C0016
:101E20008CB0019300934168052205A800F03BF8AF
:101E30000423032205A903A800F00CF9210003A83C
:101E400000F019F90CB010BD012310B50C008CB0D6
:101E5000019300934168052205A800F024F80023AF
:101E6000032205A903A800F0F5F8210003A800F05B
:101E700002F90CB010BD37B56B4605000C0001220D
:101E8000D91D806800F083F86B46E143DC793F237D
:101E90001C406B4689012143A868C9B20022D97150
:101EA00000F056F837BD70B504AC257805AC26783F
:101EB000002446748574846101604460C2810374A7
:101EC00070BDF0B50500C38985B0180A844628683E
:101ED00003ACDEB22380002807D06B7C0094019312
:101EE000012300F026F905B0F0BD6868002823D072
:101EF0002F7B6B7C032F0AD101256746AF432770E8
:101F000066705B190093230000F0ABFAEBE7002F3B
:101F100003D17F252E402670F4E7022F03D18025C0
:101F20006D422E43F7E7012FECD17F2625782E4016
:101F3000402535432570E5E7AE68002ED3D0687C98
:101F40000B00009221000200300000F0B9F8CAE74F
:101F5000F8B50B00002A00D1027C0021042A14D815
:101F600005001335290083618418A0420AD0877CBC
:101F7000DEB2002F04D12E701B0A0135013CF4E7BC
:101F8000A674F9E7FFF79DFF01000800F8BDF0B562
:101F90001600C28904000B0085B0110A00688C4647
:101FA00003A9D5B20A80002807D0627C00240096DD
:101FB000019400F025F905B0F0BD6068002823D039
:101FC000277B627C032F0BD1012467463C430C70B6
:101FD0004D700132FF240096019400F062FAEAE7A6
:101FE000002F04D18024644225430D70F2E7022FB4
:101FF00002D17F242540F8E7012FEBD140240D7852
:1020000064422C430C70E5E7A568002DD3D0627CB8
:102010002800009600F046F8CDE770B505001335AE
:102020002900027C0400FFF7B2FF00280FD0002037
:10203000237CE3189C420CD0A27C0002002A04D12D
:102040009A7C1043013B0135F4E72A78F9E7012037
:10205000404270BD016002714371704710B50400C9
:102060000068FFF7DAFF0123227993406279013B90
:10207000D040184010BD70B5050000680C00FFF797
:10208000CCFF01212B796E79994001390B00B340C7
:10209000214098430300B14028681943027CFFF7B0
:1020A00057FF70BD73B5040006A80688207C002881
:1020B00005D0A568281E02D060690096A84776BDA5
:1020C00073B5040006A80688207C002805D0E568C2
:1020D000281E02D060690096A84776BD00230372CF
:1020E000FA3301704260C360704710B5037A040090
:1020F000002B0AD021786068FEF79AF96068FEF735
:1021000048FA43425841C0B210BD012100F003F823
:102110000028EFD1F8E770B5040040680D00FEF725
:102120003DF901202072002D02D02000FFF7DDFFD5
:1021300070BDF8B51E00079B1500D318C2680400D7
:102140000F00934201D90020F8BD01784068FEF7E6
:102150006FF9079B002B0FD160682A0003683900D4
:102160005B6898478542EED131006068FEF7D9F987
:1021700043425841C0B2E7E7069B002BECD06068B1
:10218000079A036806995B689847079B9842DAD1DB
:10219000E2E7F8B505000F0016000178D2B24068FA
:1021A000FEF75EF9002486420AD1A64207D9686884
:1021B00003685B69984738550134A4B2F5E70124F8
:1021C0002000F8BDF7B50700160000240091019328
:1021D000B44213D2FB68351B9D4200D91D00019B00
:1021E000721BA24200D90023009A380011192A005C
:1021F000FFF7CFFF002802D06419E9E70120FEBDF8
:1022000073B5040000201D0006AB40CB1B78019085
:1022100000902000FFF78DFF002805D00123320039
:1022200029002000FFF7CEFF76BD0000F0B50400C6
:1022300000680E00150089B0002803D0FEF717FBD8
:1022400009B0F0BD0122237B0292002B01D0802334
:102250000293029A3378A16813405A425341654869
:10226000DBB2059302F0C4FCC3B230200321584313
:102270000193009302F0BCFC31008446731906936D
:10228000069B8B42DCD000220B78A0690393237B52
:102290000793029B019D002D05D0009D002D02D0CB
:1022A0006546013DFDD1657BAE1E012E45D810254A
:1022B0006557013512D0039E1E4035006F1EBD418B
:1022C0000496059EB54209D0049E676A6569002E92
:1022D0002ED02E683E432E60012505950568E66ADE
:1022E00035430560019D002D05D0009D002D02D0D5
:1022F0006546013DFDD111256557013506D0E569DB
:10230000A66A2D682E4201D01A43D2B20568E66A49
:10231000B5430560079D002D69D15B00DBB2002B42
:10232000B8D11123E356013300D00A700131A7E779
:102330002E68BE432E60049DCFE7012D35D11025B8
:102340006557013507D0039E676A6569334228D017
:102350002E6837432F600568E66AB5430560019D26
:10236000002D05D0009D002D02D06546013DFDD118
:102370000568E66A35430560019D002D05D0009D86
:10238000002D02D06546013DFDD11125655701356F
:10239000C0D0E569A66A2D682E42BBD01A43D2B2DE
:1023A000B8E72E68BE432E60D5E70568E66A354378
:1023B0000560019D002D05D0009D002D02D06546D1
:1023C000013DFDD110256557013507D0039E656994
:1023D000676A334207D02E6837432F600568E66A84
:1023E000B5430560D1E72E68BE432E60F6E75B106B
:1023F00094E7C04620A1070007B56B460122D971BA
:10240000D91DFFF713FF6B46D8790EBD0300006896
:1024100010B5002803D05B6806CBFEF7F3F910BDBA
:10242000006810B5002801D0FEF708FA10BD10B5FD
:10243000807B40B2431C01D002F0FAF910BD10B508
:102440000400FFF7E3FF00212000FFF7F0FF10BDBD
:1024500010B504000121FFF7EAFF2000FFF7E0FFBD
:1024600010BDF7B51C00050016000191FFF7E7FF4E
:10247000089BE718BC4209D1019CA619B4420BD0B5
:1024800021782800FFF7B8FF0134F7E7217828000A
:10249000FFF7B2FF0134EDE72800FFF7D9FF012075
:1024A000FEBDF7B5009308AB160004CB0C00050089
:1024B0001F780192FFF7C3FFA619B4420BD1009C0D
:1024C000019BE618B4420CD039002800FFF794FFB6
:1024D00020700134F6E721782800FFF78DFF0134E2
:1024E000EBE72800FFF7B4FF0120FEBD10B502485E
:1024F00001F028FD10BDC0467008002010B502484C
:1025000001F020FD10BDC0466C0B0020F7B5012482
:102510000326154F1549380000F054F814491548A2
:1025200000F050F81449154800F04CF814491548CB
:1025300000F048F81449154800F044F8144D1549C6
:10254000280000F03FF83900230000960022019493
:10255000114801F08DFC290000961E231F220194D2
:102560000E4801F085FCF7BD680E0020000800420F
:10257000000C0042700E002000100042780E002077
:1025800000140042800E002000180042880E002037
:10259000900E0020001C0042700800206C0B0020F0
:1025A000F8B505000E0017000024BC4208D02B68C7
:1025B0002800315D1B689847002801D00134F4E7FA
:1025C0002000F8BD014B436001607047006CDC02E5
:1025D0009446F0B505AC25789C1E621E9441624677
:1025E00006689207376824063A432243072432607C
:1025F00000682140AD01002442682943022B00D02D
:102600005C030A4322434260F0BD30B5C025036835
:10261000AD031C6812052A402243C0240904A40209
:1026200021400A431A6003685A6814435C6030BD55
:102630000123026811680B43136003681A68D2070C
:10264000FCD4DA69D207F9D4704702230268116812
:102650000B4313600268D3699B07FCD4704703687F
:102660001A7ED20702D41A7E9207FCD57047002248
:1026700003685A8370470368187E4007C00F70478D
:102680000368187EC0097047802302685B42117E90
:102690000B43137670470368588B8007C00F704751
:1026A00002230268518B0B43538370470368187EE3
:1026B000C007C00F70470368188DC0B27047036829
:1026C0001A7ED207FCD589B20120198570470122F4
:1026D00003689A757047012203681A7570470123D1
:1026E000026811680B43136003681A68D207FCD4B0
:1026F000DA69D207F9D470470223026811680B43E4
:1027000013600268D3699B07FCD470470368DA69D9
:102710009207FCD402211A688A431A607047026843
:10272000936A5B0A5B020B43936203681A7E52074B
:10273000FCD5986AC0B2704710B54068490002F0F5
:1027400057FA80B2002801D0013880B2C0B210BD63
:1027500070B50C0001261100630802683340344054
:10276000156824075B0723432B4313600468FFF7B6
:10277000E3FF207370BD0123026811680B431360EF
:1027800003681A68D207FCD4DA69D207F9D4704713
:102790000223026811680B4313600368DA69920729
:1027A000FCD430215A8B8A43110010220A435A83E9
:1027B0000268D3695B07FCD4704702210268136882
:1027C0008B4313600268D3699B07FCD47047802356
:1027D0000268DB02116851680B43536070470000C8
:1027E000036803491A685A680A405A607047C0462D
:1027F000FFFFFBFF032230B5036811401C68074D43
:102800005A6809042A40E4061143640F5960052CF4
:1028100003D10268D3695B07FCD430BDFFFFFCFF26
:1028200030B50468638B9B069B0F022B12D0638B21
:102830009B069B0F032B01D1002030BD638B9B07B0
:1028400004D5638B9B069B0F012BF5D1638B9B06F5
:102850009B0FF1D0236849009B019B0F023B5D4217
:102860006B4111439B03C9B2194361620368002A9B
:1028700006D11A7ED20714D41A7ED209F9D0DBE72A
:102880001A7E9207D00F002A0BDB1A7ED20702D4E1
:102890001A7ED209F4D0C022596892020A435A60C3
:1028A000CBE7588B4007C30F01205840C5E70368AA
:1028B000283319700268137EDB07D80F002B03D171
:1028C000538BDB07F7D570470123508B4007C00FB0
:1028D0005840F8E70368283319700268137E5B07D5
:1028E000D80F002B04DA0123508B4007C00F58404B
:1028F000704703681868C006400F043843425841C7
:10290000C0B270470368187E4007C00F7047036865
:10291000187EC007C00F70470368588BC006C00FF1
:1029200070470368187E8007C00F70470368588B94
:102930000007C00F704703681A68D206520F052AB5
:102940000FD11A7E92070CD41A7ED20702D41A7EB7
:10295000D209F6D0C022FF20596892020A435A6079
:10296000704728331878C0B2FAE700000368104AAD
:10297000934213D00F4A934212D00F4A934211D080
:102980000E4A934210D00E4A93420FD001200D4AB6
:102990004042934201D1063040B270470020FBE72D
:1029A0000120F9E70220F7E70320F5E70420F3E729
:1029B00000080042000C00420010004200140042D7
:1029C00000180042001C0042F7B50400FFF7CEFFDC
:1029D000002831DB1F4BC00018180379FF22019338
:1029E0000523C35603201840C0008240C021D243B3
:1029F0008140002B21DB1F2601201E40C027B04054
:102A0000154E7F00F051C0279B089B009B19BF000B
:102A1000DD592A401143D95130603F238025019A66
:102A2000ED0113401D430D4B5D805A7852B2002AD0
:102A3000FBDB0B4B1B686360F7BD0F200340083BBB
:102A400008489B089B001B18D86902401143D961B4
:102A5000E3E7C04664A5000000E100E0000C004090
:102A60008000002000ED00E0F8B504000F00160023
:102A70001D00FFF7A9FF2000FFF7DAFD1C21BB00B6
:102A80000B4071072268090C0B43136084232268F2
:102A90009375012F19D11021012E00D008396368D8
:102AA0006943D80002F0A4F80722216802408B890C
:102AB0005203DB04DB0C13438B81226803049089EF
:102AC000DB0C400B400318439081F8BDF7B50500BF
:102AD000019308AB0C0016001F78FFF700FE2800DA
:102AE000FFF772FFC021C022890224040C40920328
:102AF000BF073605274316403E430C2707222B68A5
:102B00003E431E60019B296813401A0080239B02EC
:102B100013434B602A68D3695B07FCD4F7BD70B5DB
:102B200004000D001600FFF74FFF2000FFF723FE03
:102B30001C2221686D000B6893431A001023134375
:102B40000B60FF2123680D405D62002E04D001233D
:102B50002268516A0B4353620723226893752268E7
:102B6000D3695B07FCD470BDF0B5050085B00F00DC
:102B7000FFF72AFF2800FFF7FEFD14222B6801A9AA
:102B80001A600A002A4B51CB51C22A4B9F4230D9BE
:102B9000294B9F4230D9012302222E68DB06306880
:102BA00004002648044020001406204330602C68AE
:102BB000234E20683040034323609300CC586E6856
:102BC000BC4200D93C00730A9C4200D21C002F6812
:102BD0006400022A13D12100300002F009F8FB68DA
:102BE000184A0138C0B2000413401843F86005B019
:102BF000F0BD00231A00D0E700230122CDE70E49E3
:102C0000300001F0F5FF7D23FA215843C900052566
:102C100001F0EEFF6D422D1A2100300001F0E8FFB7
:102C2000FF232818FD6818409D430543FD60DEE73B
:102C300058A50000801A060040420F00FFFFFFFC6D
:102C4000FFFFFFF7FFFF00FF3F20704713B56B4604
:102C50000268D9710733546819000122A04716BDD4
:102C600010B50221006900F027FC10BD10B503214A
:102C7000006900F037FC10BD10B51300084A0400CD
:102C8000D279002A03D101230020636010BD0A001D
:102C90000069032100F01EFD0028F4D0F6E7C046CD
:102CA0000800002010B5054C03002068421C04D128
:102CB0001A68180052699047206010BD5400002027
:102CC000074A0300106810B5411C03D001235B4282
:102CD000136010BD0221186900F0EEFCF9E7C04650
:102CE0005400002010B503784222023303700249D9
:102CF000024800F09BFD10BD10000020B40E002023
:102D000010B50178030042780020A12908D1212ABA
:102D100005D1174917481A3A00F088FD012010BD67
:102D20002129FCD1202A13D111491248193A00F067
:102D30001DFC96220E4BD200196891420ED1DA7911
:102D400001231A420AD1FA2001F014FE0020E6E71E
:102D5000222A06D19A78064BDA71EAE701F010FED2
:102D6000F4E7232ADBD15A88034B1A60D7E7C04621
:102D700008000020B40E002004000020FA220021E8
:102D8000054B92009A60054A08321A60044A59605D
:102D90001A6119767047C046980E002094A500006D
:102DA000B40E0020704770B50F26CB1D02003240D4
:102DB000D5B22C0000093034092A00DD07341C701C
:102DC0005A1E994200D170BD1300EFE710B5040000
:102DD000806904F029FAA06A04F026FA200010BDE8
:102DE00010B50400FFF7F2FF200001F06FFB200098
:102DF00010BD000070B5032908D1324B8000C058C7
:102E0000002802D00368DB68984770BD82291FD173
:102E1000C3B22D4D5A01AA1891692C4C80010C4067
:102E2000C021890521439161294908334018802137
:102E300050612A685B01D01804794942214301712D
:102E40007020995C81430800302101439954DCE7EC
:102E50000029DAD1C024C1B21B4E4A01B2189368CE
:102E60001A4DA4052B40234393601A4B8001C018D0
:102E70000B0050603068072608335B01195CB143D2
:102E80000E0001213143195491690D402C43946186
:102E900070240F495161195CA1430C00102121439A
:102EA000195491680C4CC3180C40802149032143EC
:102EB00091609168890B89039160402259790A4396
:102EC0005A71A2E7B80E00206C130020FFFFFF8F9D
:102ED000E00E0020A0100020FF3F00F0EFF3108371
:102EE00003600123436072B670470368002B02D170
:102EF00062B6BFF36F8F704737B505690400684647
:102F0000002D14D1FFF7EAFF019B621D013B02D3A4
:102F1000D57FEDB2FAE768460193FFF7E6FF002D93
:102F200001D100203EBD206AE369C01AFAE7FFF72D
:102F3000D5FF22000025019B3432013B02D31578D6
:102F4000EDB2FAE768460193FFF7CFFF002DE8D016
:102F5000206BE36AE9E70000F0B5FF25012642682F
:102F6000836811682B405B01CC186419A77AD318C9
:102F70003E43A672C6689C680B4FB60436093C40B7
:102F800034439C6083682B405B01D2189468A40B87
:102F9000A4039460402283682B4008335B01CB1864
:102FA00019790A431A71F0BDFF3F00F0F7B50569C2
:102FB00004000E0017006846002D43D1FFF78EFF76
:102FC000019B601D013B5A1C0BD0C27F591E002A79
:102FD00005D168460193FFF788FF2800FEBD0B006E
:102FE000F1E768460193FFF780FFE369AF420AD03B
:102FF000226A9A4207D95A1CE261A269D3181B7847
:1030000073550135F1E7226A9A42E6D10023E36164
:10301000013368462361FFF761FF22000021019B15
:10302000671D013B3532581CD3D0F97710785E1EEE
:10303000002805D0200011700193FFF78DFFECE709
:103040003300F0E7FFF74AFF2000019B3430013BDB
:103050005A1C06D00278591ED5B2002AB9D00B00EE
:10306000F6E7684601930025FFF73FFFE36ABD429C
:1030700002D0226B9A421CD8226B9A42ADD1002317
:103080006846E3622361FFF729FF27002200002141
:10309000019B3437013B3532581C9AD03970107877
:1030A0005E1E00280DD0200011700193FFF754FF21
:1030B000EBE75A1CE262A26AD3181B7873550135FC
:1030C000D4E73300E8E7F7B582684368D2B211006D
:1030D00004000831186849014118C879C00729D58A
:1030E00001255201CD719B189A6861699204920C76
:1030F000002923D12262226A002A41D0A26A656196
:1031000068465A60FFF7EAFE342294462200019B8B
:10311000671D013BA4443532591C2DD06146FD7713
:103120000978581ECEB2002905D001936846157063
:10313000FFF7DBFEF7BD03001670EDE72263226B9D
:10314000002A1DD0002227006261A26968465A60E9
:10315000FFF7C4FE019B621D9446013B34373032B9
:10316000591C09D061463D70C97F581ECEB2002956
:10317000DBD103001670F3E768460193FFF7B5FE55
:103180002000FFF7E9FED5E713B56A4600230C00DF
:10319000D01DD371FFF7A6FD23681818206001F039
:1031A00065FC6B46D91D01F02DFC236818186B4691
:1031B0002060D87916BD000003290ED180220E4B65
:1031C00062311B68FF31585C524202435A546822F4
:1031D0006339FF32FF39995470470129FCD18022AD
:1031E000054B24311B68FF31585C524202435A544C
:1031F00028222339FF32EDE76C13002070B500253B
:103200002F4B012104001A201D7001F0E1FA012169
:103210001A2001F00DFB2B4B012119201D7001F02C
:10322000D7FA0121192001F003FB2023264A0F20A1
:10323000D1690B43D361012224490B7813430B70EE
:10324000234B19788143197006211D782943197081
:1032500020490D782A430A701A7802401A706022B9
:1032600019780A431A701C4B1C4A5A805A78D209A2
:10327000FCD11B4801F0A4F81A4D280001F00AFC0B
:10328000280001F01DFC7F212B68C1201A788000E6
:103290000A401A70042219780A430C211A701A89FC
:1032A0008A4311491A810A581202120A0A508022CE
:1032B0000A6019787E3A0A431A700123237070BDA0
:1032C000D50E0020D40E00200004004058440041D8
:1032D0003C44004159440041000C004006400000BD
:1032E000B13C00006C13002000E100E000780028F1
:1032F00010D00121084B1B681A898A431A810822C1
:10330000198B0A431A830422198B0A431A83002259
:10331000024B1A607047C0466C13002064130020F3
:103320000A000E498B699B0B9B038B610B68022182
:10333000FF3319729879823901439971197A890793
:10334000FCD57F20064B0240997A814311438022AD
:103350009972997A52420A439A7270476C1300200C
:103360000050004110B50B790C00002B0CD1080067
:10337000FFF7C6FC002801D0012010BD094A93695F
:103380009B0B9B039361F7E701F070FB210001F0B9
:103390005DFB0028F0D1034A93699B0B9B0393616B
:1033A000EBE7C0466C130020F7B50D001100832A2F
:1033B00019D1EBB2324C5A01A21891693148AD01D2
:1033C0000840C0218905014391612F4920686D188B
:1033D0007021083355615B011A5C8A431100402259
:1033E0000A431A54F7BD022A45D1284AAB0098581F
:1033F000002802D003685B699847382001F062F822
:10340000234B8027036000231D4E7F00421D036273
:1034100003614361C36146608560C760D3772F3223
:10342000C3620363040013703800537003F0F2FEAC
:103430000190A061380003F0EDFEEBB25A01A062EA
:10344000B21891680F4808330840C021890501432C
:103450009160316807265B01585CAD00B0430600FF
:10346000032030435854019B20005360FFF774FD44
:10347000064B5C51B6E72800FFF7BCFCB2E7C0463C
:103480006C130020FFFFFF8FE00E0020B80E00201D
:10349000C0A5000070B505000124064BA200D2585B
:1034A000002A05D021002800FFF77EFF0134F4E751
:1034B00070BDC04658000020084B8A00D05810B597
:1034C000002803D003689B68984710BD044BC9B21D
:1034D0004901591888688004800CF6E7B80E00206E
:1034E0006C13002010B50C00FFF7E6FF00280CD08D
:1034F000064BE4B219688023083464010C19627920
:103500005B42134363710223E37110BD6C1300200F
:1035100070B5CBB2124A13485C01890189180219AF
:1035200051609168104D08330D4080218902294374
:10353000402591609168890B8903916001685A0167
:103540008A1816793543157195796D06FCD55B019E
:10355000C918CB79DB07FCD500198068C0B270BDF3
:10356000A01000206C130020FF3F00F070B5140085
:1035700040220B4B0D001B68FF3359790A435A71E7
:103580000021FFF7C5FFA04200D920000023054914
:10359000A34203D0CA5CEA540133F9E770BDC046C8
:1035A0006C130020A010002010B50C48C9B24901CE
:1035B000421893689B049B0C3F2B0BD99468403BAB
:1035C0009B04A40B9B0CA4032343936041188868BD
:1035D000C0B210BD93689B0B9B03F6E76C130020F1
:1035E000F0B51C002F4B85B01B6806000D00019242
:1035F000002B54D02C4F3B78D9B2002B02D119208C
:1036000001F016F964233B70284BAA00D05800281B
:1036100008D0036822005B680199984704002000E5
:1036200005B0F0BD29003000FFF746FF844204D901
:1036300029003000FFF740FF040029003000FFF7A9
:10364000B3FF0121EBB21A4F03935B010293029A7D
:103650003B6801989B18FF335A7A0A435A72154BFC
:10366000A9012200C91803F0E9FD002CD7D02900D8
:103670003000FFF721FF0028D1D14021039B3A6899
:1036800008335B01D3181879014319710121D971ED
:10369000029BD318FF339A7A0A439A72BFE7012438
:1036A0006442BCE764130020D40E0020B80E002052
:1036B0006C130020A010002013B56B46DC1D220007
:1036C0000123FFF78DFF012801D1207816BD0120CD
:1036D0004042FBE7F0B51C003A4B85B01B680E007A
:1036E0000192002B3FD08023DB019C423BD8364D1A
:1036F0002B78D9B2002B02D11A2001F099F864235B
:1037000000272B70314BB201D3180293002C2CD020
:103710002F4B1B680393FF2333401D000093083594
:10372000039B6D015D19AB79DB0921D0294B2A4937
:10373000186801F05DFA294B1721584301F058FA37
:10374000274BEA79920713D49A5D002A01D10138F8
:10375000F7D201229A55009B5A011D4B9B189A697A
:10376000920B92039A6101277F42380005B0F0BDA9
:1037700000221B4B25009A55402C00D940252A00D9
:103780000199029803F05AFD009BA9045A01104BBD
:10379000890C9B18029A7F195A619A69641B920BD3
:1037A00092030A439A61009B039A08335B01D31882
:1037B0000222DA715979823A0A435A71019B5B19E4
:1037C0000193A3E764130020D50E0020E00E002033
:1037D0006C1300208000002040420F007011010097
:1037E000D70E002070B50C001D000D4BA601F61879
:1037F000110030002A0003F021FDE4B2094A6401FF
:1038000014196661A369084928000B40A361A169E6
:10381000AB04890B9B0C89031943A16170BDC046A1
:10382000E00E00206C130020FF3F00F0F7B5104BB6
:103830000F001B7814000190002B0CD10D4B1600CB
:103840001D78002D09D00C4E0C48358828182D19EC
:1038500003F0F4FC35802000FEBD002EFBD03300C9
:103860007A1900210198FFF7BDFF2D18361AF4E7E9
:1038700060120020611300206213002061120020FA
:10388000F8B50F0016000024012A26D9100003F015
:10389000C1FC0500380004F0F1FB032302220130D3
:1038A000400028706B7096420DD9397800290AD0F3
:1038B000531CDBB20137A9549E4203D00232EC54B0
:1038C000D2B2F0E7320029000548FFF7AFFF441EEF
:1038D000A041C4B2280003F0A7FC2000F8BDC046F8
:1038E000B40E0020F0B50025012785B0184B0E005E
:1038F00069461F7004000095FFF746FC154B01A9AF
:103900000B806A3BFF3BCB716E3B0B72009B32001E
:1039100009334B800E4B8D714F7108711D70092E4C
:103920000FD00D4E092237700C4F200000953D80BE
:10393000FFF77CFF69462000FFF726FC3A8808491C
:1039400035702000FFF772FF012005B0F0BDC046C2
:1039500060120020090200006113002062130020A1
:1039600061120020F0B5CF7805000E0093B0022F51
:1039700009D1C9882B48FFF7B5FF441EA041C4B246
:10398000200013B0F0BD01F071F8310001F04EF8E5
:10399000002803D0C417241AE40FF1E7012F0BD13C
:1039A000F2882149112A11D8D2B2002A0ED028005B
:1039B000FFF73CFF0124E3E70400032FE0D1B378D5
:1039C000002B05D1F2881949032AEDD90A78EEE7D0
:1039D000022B06D1F28816492800FFF751FF040098
:1039E000CEE7012B02D1F2881249F5E7032BC7D1AC
:1039F000114B01A91868FFF7D6F9104B03A91868F5
:103A0000FFF7D1F90E4B05A91868FFF7CCF90D4B5C
:103A100007A91868FFF7C7F96B460533DC77F2880A
:103A200001A9D9E7B40E0020F1A50000E4A500002B
:103A3000D8A50000E8A500000CA0800040A08000F0
:103A400044A0800048A0800037B5050048780C00ED
:103A50000B2810D801F0C2F8061B0F310F484D7526
:103A600051546E71097801AA002906D102231180F0
:103A70002800FFF7B7FE01203EBD00231380324B24
:103A80001B78012B00D1137002230021F0E78A7804
:103A90000023012A09D16A4693802C4B1B78012B05
:103AA00000D11371022301AAEFE7274A1370284AB5
:103AB00093699B0B9B039361DDE78C78012C07D105
:103AC000224B01AA1C70234B1B7813702300DCE7E8
:103AD00000208442D0D11C4B01301D4A18709369DC
:103AE0009B0B9B039361C7E728008978FFF718FCBD
:103AF000C1E72800FFF736FFBEE70123164AC4E7F7
:103B00000B780020DB06B7D12800FFF7C3FC2A2082
:103B10000221A278104BFF301A600D4A13681C5C1A
:103B200021434A241954FF34195D2938FF380143D1
:103B30001955D4E70123094AA7E78A78074B1A6089
:103B4000B5E7002098E7C046D60E0020DE0E002024
:103B50006C13002033A700006413002068130020BA
:103B60004B4BF7B51C780700002C00D083E0494E82
:103B700033689B8B1B070ED521002000FFF73AF915
:103B8000326810231100FF31887A03438B72424B55
:103B90001C600823938333689A8B52071FD5042235
:103BA0009A833E4A1378002B0AD01378013BDBB28C
:103BB00013701378002B03D101211A2000F038FE76
:103BC000374A1378002B0AD01378013BDBB213700D
:103BD0001378002B03D10121192000F029FE33684E
:103BE000FF331A7AD2061ED510221A725979303252
:103BF0000A435A7160232B4938000A781A423BD194
:103C0000FFF722FF3368FF33002838D080229979EC
:103C100052420A439A711A7A520604D540221A7205
:103C2000597A0A435A72336800241D8C01239D433C
:103C3000EDB20193E1B2002D1DD02B002341019A7A
:103C4000134215D02300326808335B01D318DA79A8
:103C5000D20702D4DB799B0707D5134BA200D058BB
:103C6000002810D003681B689847019BA3409D4320
:103C70000134092CDED1F7BDFFF774FBC2E7202128
:103C80000A4A9171C7E73800FFF796FAEDE7C04698
:103C9000611300206C13002064130020D50E002057
:103CA000D40E0020A0100020B80E0020FF500041CC
:103CB00010B50248FFF754FF10BDC046B40E0020F7
:103CC000014B024A1A6070476C13002000500041FB
:103CD0000120704710B50368014A1B6A984710BD60
:103CE000130400000300FC33D96F9A6F914203D094
:103CF000DB6FC018007D704701204042FBE710B524
:103D000004000069FEF794FC22000023FC32936754
:103D1000D3679E229200A4186366A36610BDF023A9
:103D20001B011940802306209B0099420AD00133D1
:103D3000FF330130994205D0802300205B00994277
:103D400000D1053070470F2001400020012903D029
:103D50000239481E8141481C70470000B923F0B564
:103D6000182785B002919B000400C05C3B0008212D
:103D70004343324E1500F318595600F09DFD304B69
:103D80000821E05C3B004343F318595600F094FDD2
:103D90002C4BE25C0393022A09D11133E05CFF282B
:103DA00005D008214743F719795600F085FDBA2759
:103DB000BF00E05DFF2819D0012100F009FD1822A5
:103DC000E35D21495A43B356B618DB015818BB21AD
:103DD000890060501D4901225B18BC218900635095
:103DE00071688A40BD21890062501A600122029BDD
:103DF00011002069FEF738FE29002000FFF78FFF31
:103E0000290006002000FFF79EFFF0221540303DFC
:103E10006A42554103003100206901220095FEF7F6
:103E2000D7FB0B4B2069E25C039BE15CFEF7EDFBEB
:103E30002069FEF70AFC05B0F0BDC04608A10000ED
:103E4000E5020000E702000018440041144400416C
:103E5000E6020000AF2210B504000021520003F07A
:103E6000F6F923000022FC3320005A669A6610BD42
:103E7000F7B51D0008AB1B780400009309AB1B7855
:103E80001600019300234360FA239B008360104BCC
:103E90000F00083303601430FFF7DCFF20007D3093
:103EA000FF30FFF7D7FFB9239B002761E654094B8A
:103EB000009AE554084B2000E254019A074BE25463
:103EC000BA22E93BFF3B9200A3541032A354FEBD3B
:103ED00004A60000E5020000E6020000E702000080
:103EE0000300FC33586E9B6EC01A01D55F30FF3063
:103EF000704710B5040020007D30FF30FFF7F0FF61
:103F00000028F8D12069FEF7AAFB10BD10B51430C7
:103F1000FFF7E6FF10BD0300FC33596E9A6E914225
:103F200005DB5A6E986E801A5E30FF307047986ECF
:103F30005B6EC01A0138F9E710B57D30FF30FFF72E
:103F4000EAFF10BD70B504000069FEF7A4FB00286D
:103F500005D02069FEF7AFFB2069FEF7A1FB2069C1
:103F6000FEF789FB002824D025002069FEF7A3FB7B
:103F7000AF21FC350600A86F4900013000F0BEFEFD
:103F8000EB6F994203D0AB6FE3181E75A967BA2394
:103F90009B00E35CFF2B0CD020001430FFF7BBFF2D
:103FA000092806DCBB23BD229B009200E358A258DF
:103FB0001A602069FEF77AFB00281DD020007D30B2
:103FC000FF30FFF78DFF002825D09E239B00E618C9
:103FD000B26E736E9A421BD0BE22AF21B36EB06E2A
:103FE000E3185200013049009D5C00F087FEB16685
:103FF0002069E9B2FEF763FB2069FEF741FB002868
:1040000005D02069FEF740FB2069FEF730FB70BD4C
:1040100001256D42ECE72069FEF75DFBECE700004F
:10402000F7B5040000690E00FEF740FB002847D1F9
:10403000AF277F009E239B00E518686EAB6E3900AA
:104040000130019300F05AFE019B994224D1EFF315
:104050001083DB070ED4204B5B68DB05DA0D002BE9
:10406000E8D0103A53B212060DD49B081B4AC03355
:104070009B009B582069FEF719FB0028DAD020002E
:10408000FFF760FFD6E70F221340083B144A9B0856
:104090009B009B181B68EDE7AF21686E490001305B
:1040A00000F02CFEAB6E994205D0BE226B6E520022
:1040B000E3189E5469662069FEF709FB0120FEBDE6
:1040C00020007D30FF30FFF70BFF0028B0D131001A
:1040D0002069FEF7F4FAF1E700ED00E000E100E00E
:1040E0001CED00E070B50500FC35EA6FAB6F040015
:1040F0009A421DD0AF21EB6F4900C318E86F1E7DB7
:10410000013000F0FBFDE967BA239B00E35CFF2B65
:104110000CD020001430FFF7FEFE0A2806DDBC2379
:10412000BD229B009200E358A2581A60300070BD77
:1041300001267642E8E70000F7B50092182216261D
:104140004243544B07009B189E570191731C52D059
:10415000514B524C1D68002D2BD129004422504850
:1041600003F075F8290044224E4803F070F810223D
:104170004D4B4E491D604E4BCA67BFF34F8FBFF387
:104180006F8FC021C12049005A5080001958FF3557
:10419000A94319501A60474B474A5A800223227894
:1041A000134323706378DB09012BFBD001223A4BC8
:1041B0001A6001231D00B54062692A436261019AB9
:1041C000002A18D0102E1FD1E2781343E370009B11
:1041D000042B0BD818000723A2789A4300F0FEFCAA
:1041E000030C0E10120005231343A3702D4B019AEC
:1041F0001A64ADB2E560F7BD0423F5E70323F3E7E6
:104200000223F1E70123EFE738000027002100F047
:1042100053FB254B22499C461B68BA00BB421DD16B
:104220006046013303601F4B8D5001999950072E52
:1042300019DD32000123083A920007209040174907
:104240009B005B1899698143996100990429D0D832
:10425000080000F0C3FC0B1215181B008858A84278
:10426000E1D00137D9E70023B200E6E705219869DC
:1042700091400A0002439A61BBE704219869F7E77D
:1042800003219869F4E702219869F1E7012198690F
:10429000EEE7C04608A10000F81400200018004016
:1042A000B414002070140020FC14002004E100E08D
:1042B00000E100E0000C00400540000070B5002463
:1042C000094D0A4B1B68A34200D870BD084E2A68EE
:1042D00033691A4205D0074BA200D35898472B6880
:1042E000336101340435ECE7B4140020FC140020E1
:1042F0000018004070140020054B10B51B6C002BFB
:1043000000D098470123034AD1780B43D37010BDE6
:10431000701400200018004010B5041E05D003F0F2
:1043200069FE210000F0D4FD0C00200010BD10B586
:104330000400884203DA081AFFF7EEFF2418200071
:1043400010BDFEE7FEE70000034B10B51B68002B15
:1043500000D0984710BDC046001500200F4A1048F5
:10436000110010B50F4B824202D0934209D11300C5
:10437000824209D100F0AEF800F082F8FEE710CBDF
:1043800010C18142FBD3F3E7074A8B42F2D00021F0
:10439000064B9A42EED202C2FBE7C0460000002064
:1043A00080020020F8A900008002002030150020C3
:1043B00010B500F062F8002801D100F053F810BDEC
:1043C000014B18607047C04600150020014B18686B
:1043D0007047C04604150020F7B5134801228446F3
:1043E0001249134C8E68636805689B0E1340019256
:1043F00088686268019F920E3A4067463F68934220
:104400000ED1BD420CD186420AD35B19FA25486809
:10441000AD00861B07486B437043000DC018FEBDFE
:104420003D0013000600E3E70415002010E000E063
:1044300000ED00E05555000070B5041E11D0FFF7E7
:10444000CBFFFA260500B60000F016F8FFF7C4FF10
:10445000401BB042F8D3FA23013C9B00ED18002C1E
:10446000F4D170BD10B5034A13680133136000F036
:104470008FFA10BD04150020704700207047704768
:1044800010B500F0F1F802F097FEFFF7F8FF0120F9
:10449000FFF7D2FF094C2000FEF7B0FE2000FEF728
:1044A00025FFFBF72DFEFBF7FBFEFFF7E5FF044BB7
:1044B000002BF8D000E000BFF5E7C046B40E0020A6
:1044C0000000000010B502F0A5FE10BD10B502F00E
:1044D000ABFE10BD1E22F0B5504851494368514D06
:1044E00093431A0002231343436008238A6913434A
:1044F000FE228B612B68D2039B0213404A4A13436E
:104500004A4A936113000422DC681442FCD001245F
:10451000474A14701678264203D0567876B2002E99
:10452000F8DB01249460547864B2002CFBDB414C2E
:104530005460547864B2002CFBDB8224E401548084
:10454000547864B2002CFBDB02249C840E34DE68B9
:104550002642FCD0384CDC621024DE682642FCD0B7
:104560002C68A40E3F2C00D1203C9E6A334FA4023D
:104570003E4034439C629C6A314EA40AA4023443F8
:104580009C62304CDC6200249C841034DE6826423D
:10459000FCD02D4C9C841024DE682642FCD00224E2
:1045A0009E8C34439C841024DE682642FCD0002478
:1045B0009460547864B2002CFBDB244C5460547833
:1045C00064B2002CFBDB1C6A214E344080261C6246
:1045D0001C6AB4431C62032393601E4B53605378E0
:1045E0005BB2002BFBDB0023FF240B721A4A4B72D9
:1045F0008B72CB72194B1A60194A2B6811689A0694
:104600005B01C90E2340520F12020B431343154A9C
:1046100013858023426813434360F0BD004000418E
:1046200000040040246080000606000000080040EE
:10463000000C004001040100B905FF7DFF03FFFFEE
:10464000FF01000080BB0A1C2405000000070300D6
:10465000FFFCFFFF03060100006CDC02800000206D
:104660002060800000400042FA212E4B10B51868EF
:10467000890000F0BDFA802301385B0498424FD2D4
:1046800029492A4A4860C020136A00061B021B0AF7
:104690000343136200238B6007330B608021136A8E
:1046A00009061B021B0A0B431362FC22204B196AEA
:1046B0000A431A62FF22196A12020A431A62A022EE
:1046C000196AD2020A431A621A4B1C005A7852B273
:1046D000002AFBDB184A5A80184B1A00597EC90978
:1046E0000129FBD0C821890099800521D970537E0A
:1046F000DB09012BFBD0C02300205B01136190700C
:1047000000F022F863785BB2002BFBDB0C4B0D4A08
:104710006380D379DB09012BFBD04123537010BD9B
:10472000FEE7C0468000002010E000E000ED00E061
:1047300000040040000C00401E4000000040004209
:1047400021400000004800421F4900B50B004A7E8E
:10475000D209012AFBD001380A282FD800F03EFAEE
:104760001B2E2E2E2E2E062E2E2411001A691749CE
:104770000A400F211A615A788A43110001220A4324
:1047800010E01A6911490A400F211A615A788A43C8
:1047900011000322F3E71A690C490A400F211A613C
:1047A0005A788A435A7000BD1A6908490A400F2195
:1047B0001A615A788A4311000222E0E7F02219694F
:1047C00012050A43F3E7C04600400042FFFFFFF036
:1047D000182310B508245843134A13181C570134E2
:1047E00012D001245B6882569C4003290CD8080033
:1047F0000E49D2015218D318403300F0EFF90210DD
:10480000060B02211970546010BD06211970546006
:104810009461F9E70621197054605461F4E742216C
:1048200019709460F0E7C04608A100000044004100
:104830001823F0B508245843114A13181C570134A3
:104840001BD0012635005F688356BD400D4ADB0151
:104850009A18906805420BD10C00601E8441D21951
:104860004032107834400336A400B0432043107027
:10487000044A9B18002901D15D61F0BD9D61FCE7F0
:1048800008A1000000440041182310B50824434348
:1048900007490020CA181457013408D05B5605494F
:1048A000DB015B18186A5368D8400123184010BD1B
:1048B00008A1000000440041182370B508264343B6
:1048C0002A4AD518AE573400013607D0072907DC2D
:1048D00000291DDA01314C424C416442200070BD78
:1048E0000B00083BDBB20024032BF7D8092903D1C6
:1048F0002100FFF76DFFF1E70A2904D10839FFF71E
:1049000067FF0024EAE700240B29E7D10A39F0E722
:104910006C68012520009B56C9B262082840DB0163
:104920002C4211D012480E351B189A1830321078CC
:10493000090128400143C9B2117041221B194033BB
:1049400019780A431A70DCE70F26094D5B199A188B
:10495000303215781B19B543294311704122403379
:10496000197804000A431A70B8E7C04608A100008D
:1049700000440041014B18607047C046840000208D
:104980000122024B52421A607047C0468400002048
:10499000164A10B51368591C27D0013B1360002B31
:1049A00023D172B68122124B92000433934213D367
:1049B000104A01211000147D0C42FCD02021148BE0
:1049C000FF319B085B0021431183D3610A4B1380A5
:1049D0000123027D1A42FCD0BFF34F8F074B084AD8
:1049E000DA60BFF34F8FC046FDE710BD84000020A2
:1049F000000000000040004102A5FFFF00ED00E0C4
:104A00000400FA0570B50E0000254468002C0BD098
:104A10002368310020005B689847002802DBE468C7
:104A20002D18F3E701256D42280070BD70B50D000B
:104A30004468002C08D02368290020009B68984710
:104A4000002802D1E468F4E7200070BD70B50D00C5
:104A50004468002C08D02368290020001B68984770
:104A6000002802D1E468F4E7200070BD064A012363
:104A7000116810B50C0005481C40194203D10449C7
:104A800044600180136010BD081500200C15002043
:104A90000204000070B50400012320CC00212A7814
:104AA0002000134380222B70520002F0D0FBAB7821
:104AB000DB07FCD4AB789B07F9D46C6270BD0000B7
:104AC0001F22144B70B51B68590B9C0C9B011140A5
:104AD0005B0F22401F2900D11A391F2A00D1023A48
:104AE000072B00D1043B1F2500688E01048D0A4965
:104AF0002A40214031430185018D14000A00AA4358
:104B000022430285028D1903044B13400B43038596
:104B100070BDC046246080003FF8FFFFFF8FFFFF9D
:104B2000030010B50800190002F028FB10BD0000BA
:104B3000030070B54A00254C520D161908001D00DF
:104B4000132E13DC002E34DB214A04003241110005
:104B50000140194307D08021090331410918002081
:104B6000914305000C002800210070BD332E0DDD9F
:104B700080220C00D2009642F5D12A000B002800BA
:104B8000210000F05FFC05000C00ECE7114CA4468E
:104B9000012462446442D4401C4211D03322961B4B
:104BA000323AB240D3189D4200D90131A3431800D4
:104BB000D7E7C80FC007731C04D001000020D0E75E
:104BC0000C00D0E7044901430020CAE701FCFFFFC5
:104BD000FFFF0F00EDFBFFFF0000F03F02B4714646
:104BE00049084900095C49008E4402BC7047C04630
:104BF000002243088B4274D303098B425FD3030A1C
:104C00008B4244D3030B8B4228D3030C8B420DD32E
:104C1000FF22090212BA030C8B4202D312120902BC
:104C200065D0030B8B4219D300E0090AC30B8B42FA
:104C300001D3CB03C01A5241830B8B4201D38B03A8
:104C4000C01A5241430B8B4201D34B03C01A52414D
:104C5000030B8B4201D30B03C01A5241C30A8B4290
:104C600001D3CB02C01A5241830A8B4201D38B027B
:104C7000C01A5241430A8B4201D34B02C01A52411F
:104C8000030A8B4201D30B02C01A5241CDD2C30991
:104C90008B4201D3CB01C01A524183098B4201D30D
:104CA0008B01C01A524143098B4201D34B01C01AF8
:104CB000524103098B4201D30B01C01A5241C30870
:104CC0008B4201D3CB00C01A524183088B4201D3DF
:104CD0008B00C01A524143088B4201D34B00C01ACB
:104CE0005241411A00D20146524110467047FFE737
:104CF00001B5002000F0F0F802BDC0460029F7D051
:104D000076E7704703460B437FD4002243088B426B
:104D100074D303098B425FD3030A8B4244D3030B42
:104D20008B4228D3030C8B420DD3FF22090212BA07
:104D3000030C8B4202D31212090265D0030B8B4283
:104D400019D300E0090AC30B8B4201D3CB03C01A6D
:104D50005241830B8B4201D38B03C01A5241430B48
:104D60008B4201D34B03C01A5241030B8B4201D338
:104D70000B03C01A5241C30A8B4201D3CB02C01AA3
:104D80005241830A8B4201D38B02C01A5241430A1B
:104D90008B4201D34B02C01A5241030A8B4201D30A
:104DA0000B02C01A5241CDD2C3098B4201D3CB01B1
:104DB000C01A524183098B4201D38B01C01A524160
:104DC00043098B4201D34B01C01A524103098B4264
:104DD00001D30B01C01A5241C3088B4201D3CB004F
:104DE000C01A524183088B4201D38B00C01A524132
:104DF00043088B4201D34B00C01A5241411A00D2E2
:104E000001465241104670475DE0CA0F00D049424A
:104E1000031000D34042534000229C4603098B42BA
:104E20002DD3030A8B4212D3FC22890112BA030A42
:104E30008B420CD3890192118B4208D389019211C4
:104E40008B4204D389013AD0921100E08909C30949
:104E50008B4201D3CB01C01A524183098B4201D34B
:104E60008B01C01A524143098B4201D34B01C01A36
:104E7000524103098B4201D30B01C01A5241C308AE
:104E80008B4201D3CB00C01A524183088B4201D31D
:104E90008B00C01A5241D9D243088B4201D34B0038
:104EA000C01A5241411A00D20146634652415B107A
:104EB000104601D34042002B00D54942704763465B
:104EC0005B1000D3404201B5002000F005F802BDA0
:104ED0000029F8D016E770477047C0468446101C7A
:104EE00062468C46191C634600E0C0461FB501F0BF
:104EF000A9F9002801D40021C8421FBD10B501F056
:104F0000F3F84042013010BD10B501F09BF90028C4
:104F100001DB002010BD012010BDC04610B501F01E
:104F200091F9002801DD002010BD012010BDC04610
:104F300010B501F015F9002801DC002010BD01209A
:104F400010BDC04610B501F00BF9002801DA0020B1
:104F500010BD012010BDC0468446081C6146FFE715
:104F60001FB500F0C5F8002801D40021C8421FBDBC
:104F700010B500F049F84042013010BD10B500F006
:104F8000B7F8002801DB002010BD012010BDC0468D
:104F900010B500F0ADF8002801DD002010BD0120A3
:104FA00010BDC04610B500F057F8002801DC002005
:104FB00010BD012010BDC04610B500F04DF800280E
:104FC00001DA002010BD012010BDC04670B50022DE
:104FD0000C4B04000D00FFF7B5FF002804D12000A2
:104FE000290001F0BBFF70BD064B00222000290004
:104FF00001F004FC01F0B2FF80231B069C466044D4
:10500000F1E7C0460000E04170B542004E024C009E
:1050100045026D0A120EC30F760A240EC90FFF2A2D
:105020000FD0FF2C11D00120A24200D070BDB5429C
:10503000FCD18B420DD0002AF8D12800451EA84192
:10504000F4E70120002DF1D1EBE70120002EEDD196
:10505000E9E70020EAE7C046F0B5420046024D020B
:105060004C00C30F760A120E6D0A240EC80FFF2AD9
:105070001FD0FF2C10D0002A1FD171427141002C8B
:1050800001D1002D1ED000290ED183421ED0022155
:10509000581E08400138F0BD002D26D1002AF4D159
:1050A000714271410029F0D00028F4D10120404222
:1050B000F1E7002E19D1FF2CEED0002CE5D1002D08
:1050C000E3D1E4E70020002EE5D0E0E7A24205DCD2
:1050D000EADBAE4202D8E7D30020DCE7414241419F
:1050E0004842022108400138D5E702204042D2E779
:1050F000F0B5420046024D024C00C30F760A120E74
:105100006D0A240EC80FFF2A0DD0FF2C0FD0002AE5
:1051100023D171427141002C0FD1002D0DD10020FF
:10512000002E14D00DE0002E10D1FF2C15D1002D33
:105130000CD1002A03D171427141002908D1834268
:1051400010D00221581E0840013800E00220F0BDB6
:105150000028FCD101204042F9E7002CEFD1002DBE
:10516000EDD1EEE7A24205DCF2DBAE4202D8EFD38E
:105170000020ECE741424141484202210840013809
:10518000E5E7C046F8B557464E464546DE4644027A
:10519000E0B545000F1C640A2D0EC60F002D47D048
:1051A000FF2D4DD0002380209A469B46E400C0048A
:1051B00004437F3D7802430A99467A00FB0F9846E4
:1051C000120E4B4644D0FF2A11D0D8008023DB04B6
:1051D0000343994600207F3AAD184746534677402F
:1051E000691C0F2B3FD8724A9B00D3589F46FF354E
:1051F000002B00D079E0524602231A439246022047
:10520000EBE747464C4683465B46022B28D0032BF0
:1052100000D1C6E0012B4FD100200024C005FF07BC
:10522000204338433CBC90469946A246AB46F8BD65
:10523000002C71D104239A46033B00259B46B9E715
:10524000002C63D108239A46063BFF259B46B1E715
:10525000002B50D1524601331A4392460120BCE73D
:10526000FF200024DAE74846260C2404220C04041C
:10527000240C4B4620001B0C504374435A435E439E
:105280001219030C9B189C4203D9802252029446A7
:10529000664400041A04000C12189401601E844134
:1052A0001B0C920E9B1914439B011C431B0172D5CE
:1052B0000120630804401C4308007F3000283CDDC7
:1052C000630704D00F232340042B00D004342301B0
:1052D00003D580310800374B1C40FE28C0DCA401F8
:1052E000640AC0B29AE737008EE7524603231A4396
:1052F0009246032071E7484601F004FF4A46431FE7
:105300009A402D1A91460020763D66E70C239A4676
:10531000093BFF259B464DE7200001F0F3FE762573
:10532000431F9C4000236D429A469B462D1A41E73D
:1053300080240027FF20E40370E701231B1A1B2BA6
:1053400000DD69E79E3120008C40D840631E9C41FF
:105350000443630704D00F232340042B00D00434FC
:1053600063011AD50120002458E78020C0030442BD
:1053700009D04B46034206D14C46044364024746DB
:10538000FF20640A4AE78020C00304436402370018
:10539000FF20640A42E729008EE7A4010020640A86
:1053A0003CE78020C00304436402FF20640A35E721
:1053B00038A60000FFFFFFF770B5002813D0C31711
:1053C000C5185D40C40F280001F09CFE9E2301001B
:1053D0001B1A962B0FDC082801DD08398D406D0261
:1053E0006D0AD8B202E0002400200025C005284341
:1053F000E407204370BD992B0BDD05222E00121A05
:10540000D64002001B3295402800451EA8413500B9
:105410000543052901DD4A1F95402A00084E324008
:10542000680709D00F202840042805D00432500115
:1054300002D59F2332405B1A9201550AD8B2D5E7B4
:10544000FFFFFFFBF0B54F46D64646460D00010074
:105450001800C0B517002B035A0A4B0F1343CA009C
:10546000914602036E004100520AEC0F7D0F154376
:10547000760D490DC00F8246AC46FF00721A844279
:1054800000D198E0002A00DC81E0002900D1B6E0DC
:10549000C9498E4200D172E18021280009040843E5
:1054A0008446382A00DD5EE11F2A00DDEEE120207F
:1054B00039006546801A8740D14085400D43390048
:1054C0004F1EB9416746D7402943DB1B4A46551A50
:1054D000A945894149425B1A984643461B0200D4BC
:1054E000CCE043465B025B0A98464346002B00D162
:1054F0002CE1404601F006FE010008392022280078
:105500004346521A8B40D0408D4003438E4200DD0B
:1055100017E18E1B721C1F2A00DDA7E12021180055
:105520002E00891A8D408840D640D340691E8D4197
:1055300030439846002605436B0709D00F232B40C4
:10554000042B05D02B1DAB42AD416D42A8441D007C
:1055500043461B0200D494E0974B721C9A4200D140
:105560009DE04146954BED0819400B005205490757
:105570005B0229431B0B520D12051343E40723431F
:10558000080019001CBC90469946A246F0BD002AAE
:1055900043D08A1B002E00D02AE14C461C4300D188
:1055A000D1E1541E012A00D11FE2834DAA4200D14D
:1055B00072E2220023E1002A00DC98E0002942D0B8
:1055C0007D498E4200D1DAE0802128000904084399
:1055D0008446382A00DD29E11F2A00DC87E111001A
:1055E00065462039CD40202A04D040206146821AE9
:1055F00091400F4339004F1EB9410D431BE1290073
:10560000394300D1B5E0511E012A00D1ABE16A480F
:10561000824200D1B2E10A0043E76949751C0D429C
:1056200000D0CFE0002E00D093E14946194300D1CD
:10563000D1E16146394300D0E3E149465807C90842
:105640000143DB0826E02900394300D191E0511ED7
:10565000012A05D05848824200D18FE10A00B8E7FC
:105660003D004D444D458941634498464942884434
:10567000434602261B0200D5EBE0013E6B0700D03B
:105680005CE74346E9085A0711433200DB084A4801
:10569000824221D01B0352051B0B520D6CE70023E5
:1056A000002169E72A003A4369D04A465807D108E1
:1056B000DA0880231B0308431A4207D02900ED08AB
:1056C0001D4203D12A00FF0848073843430FC10099
:1056D0005B07C908194313000A001A4300D113E2FB
:1056E0008022120313431B03334A1B0B44E7002A97
:1056F0004BD08A1B002E00D1E7E02F48814200D119
:1057000095E1802000040343382A00DD43E11F2A8D
:1057100000DDDBE120201D004E46801A8540D6408A
:1057200035434E4686403000D340461EB0419C442F
:105730000543ED19BD429B415B42634498460E0010
:105740007FE01E4A761A13409846F5E6280001F0DD
:10575000D9FC010018311F2900DCCFE62B000838E6
:1057600083400025D2E662463A4311004F1EB941FC
:10577000ACE649465807C9080143DB0887E74946B4
:105780005A07C9081143DB08A6E70D49701C0842F7
:1057900000D0BBE0002E00D014E14946194300D1EF
:1057A00075E12900394300D07EE149465807C90810
:1057B0000143DB086EE7C046FF070000FFFF7FFFE5
:1057C000FE0700004946CD1B6146581AA94589418C
:1057D0004942884601004046091A8846090200D518
:1057E000A6E04146294300D07FE60023002451E78C
:1057F000C74CA14200D1C7E0802424042343382AA7
:1058000054DC1F2A00DDCCE020244846A41A1D00E9
:105810004E46A040D640A5400400D34062463543E2
:10582000661EB441D31A9C46254344E062463A437F
:1058300015006F1EBD414D444D4589414942884682
:10584000984443461B0200D418E7B14B01369E42F0
:1058500049D04246AF4B01211A4013006A080D405F
:105860001543D9075B0898460D4365E618001F3EAF
:10587000F040202A03D040218A1A93401D43691E1C
:105880008D410023002698460543F7E61100654642
:105890002039CD40202A04D040206146821A914010
:1058A0000F4339004F1EB94129430FE64A461343BF
:1058B0001D006B1E9D417D1BAF429B4162465B42BA
:1058C000D31A984654460E0007E64846184300D1BE
:1058D000B3E0501E012A00D10DE18D4DAA4200D146
:1058E000A5E0020010E732000023002144E6202159
:1058F0003800891A65468F408D40D040791E8F410F
:1059000005433D436746D740DB1994E7804A904200
:1059100000D1ECE039004944494592416344524288
:105920009B18DD0749085B08984606000D43A5E66D
:105930004A46BD1AAF42894162464942D31A5B1AB0
:1059400098465446D1E56C07F9082143EB0804005A
:105950009DE64A461A4375D16146394314D18023E6
:1059600000241B03BCE64A46D51BA9458941624673
:1059700049429B1A5B1A98460126AEE54A46D10871
:105980005A071143DB08A7E66346F9085A0754464D
:105990001143DB08A0E64A4613431D006B1E9D41E0
:1059A000C7E614001E00203CE640202A05D0402413
:1059B000A21A93404A461A4391464D466B1E9D419A
:1059C000354378E74A461A4300D06BE66B07F9087F
:1059D0001943EB0880E66146394354D06346F90821
:1059E0005C072143DB08040054E64A46BD1AAF4277
:1059F000894162464942D31A5B1A9846040001263F
:105A00006BE54A46D51BA9458941624649429A1A27
:105A1000521A9046120232D54A46BD1AAF42894107
:105A200062464942D31A5B1A9846040084E56346ED
:105A3000F9085A071143DB084EE6F90868070143E5
:105A4000EB0824E662463A4300D198E64A46D1087C
:105A50005A071143DA0880231B031A4208D0604614
:105A6000C5081D4204D154462A00F90843071943CA
:105A70004B0FC9005B07C908194313002CE64146C8
:105A8000294300D0FAE500230A00002402E66B0750
:105A9000F9081943EB08FDE56346F9085B0719436C
:105AA00063460400DB0817E63D004D4463444D4562
:105AB000894198464942884443461B0200D4DDE5AB
:105AC0004246144B01261A409046D7E510001E00AE
:105AD0002038C640202A05D04020821A93404A46EA
